{
  "contractName": "FundraiserStore",
  "abi": [
    {
      "inputs": [
        {
          "internalType": "uint256",
          "name": "",
          "type": "uint256"
        }
      ],
      "name": "fundraisers",
      "outputs": [
        {
          "internalType": "contract Fundraiser",
          "name": "",
          "type": "address"
        }
      ],
      "stateMutability": "view",
      "type": "function",
      "constant": true
    },
    {
      "inputs": [
        {
          "internalType": "uint256",
          "name": "_goalAmount",
          "type": "uint256"
        },
        {
          "internalType": "uint256",
          "name": "_minDonation",
          "type": "uint256"
        },
        {
          "internalType": "uint256",
          "name": "_expiryDate",
          "type": "uint256"
        },
        {
          "internalType": "string",
          "name": "_hostName",
          "type": "string"
        },
        {
          "internalType": "string",
          "name": "_title",
          "type": "string"
        },
        {
          "internalType": "string",
          "name": "_description",
          "type": "string"
        },
        {
          "internalType": "address",
          "name": "_recipientAddress",
          "type": "address"
        }
      ],
      "name": "createFundraiser",
      "outputs": [],
      "stateMutability": "nonpayable",
      "type": "function"
    },
    {
      "inputs": [],
      "name": "getAll",
      "outputs": [
        {
          "internalType": "contract Fundraiser[]",
          "name": "",
          "type": "address[]"
        }
      ],
      "stateMutability": "view",
      "type": "function",
      "constant": true
    }
  ],
  "bytecode": "0x608060405234801561001057600080fd5b50611f6e806100206000396000f3fe60806040523480156200001157600080fd5b5060043610620000465760003560e01c806353ed5143146200004b578063701970a2146200006d578063f38f72fb146200008d575b600080fd5b62000055620000c3565b6040516200006491906200052c565b60405180910390f35b6200008b60048036038101906200008591906200032b565b62000153565b005b620000ab6004803603810190620000a59190620002ff565b62000211565b604051620000ba919062000550565b60405180910390f35b606060008054806020026020016040519081016040528092919081815260200182805480156200014957602002820191906000526020600020905b8160009054906101000a900473ffffffffffffffffffffffffffffffffffffffff1673ffffffffffffffffffffffffffffffffffffffff1681526020019060010190808311620000fe575b5050505050905090565b600033905060008888888888888888604051620001709062000251565b620001839897969594939291906200056d565b604051809103906000f080158015620001a0573d6000803e3d6000fd5b5090506000819080600181540180825580915050600190039060005260206000200160009091909190916101000a81548173ffffffffffffffffffffffffffffffffffffffff021916908373ffffffffffffffffffffffffffffffffffffffff160217905550505050505050505050565b600081815481106200022257600080fd5b906000526020600020016000915054906101000a900473ffffffffffffffffffffffffffffffffffffffff1681565b61171f806200081a83390190565b600062000276620002708462000639565b62000610565b9050828152602081018484840111156200028f57600080fd5b6200029c8482856200072a565b509392505050565b600081359050620002b581620007e5565b92915050565b600082601f830112620002cd57600080fd5b8135620002df8482602086016200025f565b91505092915050565b600081359050620002f981620007ff565b92915050565b6000602082840312156200031257600080fd5b60006200032284828501620002e8565b91505092915050565b600080600080600080600060e0888a0312156200034757600080fd5b6000620003578a828b01620002e8565b97505060206200036a8a828b01620002e8565b96505060406200037d8a828b01620002e8565b955050606088013567ffffffffffffffff8111156200039b57600080fd5b620003a98a828b01620002bb565b945050608088013567ffffffffffffffff811115620003c757600080fd5b620003d58a828b01620002bb565b93505060a088013567ffffffffffffffff811115620003f357600080fd5b620004018a828b01620002bb565b92505060c0620004148a828b01620002a4565b91505092959891949750929550565b6000620004318383620004b8565b60208301905092915050565b6200044881620006c4565b82525050565b60006200045b826200067f565b620004678185620006a2565b935062000474836200066f565b8060005b83811015620004ab5781516200048f888262000423565b97506200049c8362000695565b92505060018101905062000478565b5085935050505092915050565b620004c38162000702565b82525050565b620004d48162000702565b82525050565b6000620004e7826200068a565b620004f38185620006b3565b93506200050581856020860162000739565b6200051081620007d4565b840191505092915050565b6200052681620006f8565b82525050565b600060208201905081810360008301526200054881846200044e565b905092915050565b6000602082019050620005676000830184620004c9565b92915050565b60006101008201905062000585600083018b6200051b565b62000594602083018a6200051b565b620005a360408301896200051b565b8181036060830152620005b78188620004da565b90508181036080830152620005cd8187620004da565b905081810360a0830152620005e38186620004da565b9050620005f460c08301856200043d565b6200060360e08301846200043d565b9998505050505050505050565b60006200061c6200062f565b90506200062a82826200076f565b919050565b6000604051905090565b600067ffffffffffffffff821115620006575762000656620007a5565b5b6200066282620007d4565b9050602081019050919050565b6000819050602082019050919050565b600081519050919050565b600081519050919050565b6000602082019050919050565b600082825260208201905092915050565b600082825260208201905092915050565b6000620006d182620006d8565b9050919050565b600073ffffffffffffffffffffffffffffffffffffffff82169050919050565b6000819050919050565b60006200070f8262000716565b9050919050565b60006200072382620006d8565b9050919050565b82818337600083830152505050565b60005b83811015620007595780820151818401526020810190506200073c565b8381111562000769576000848401525b50505050565b6200077a82620007d4565b810181811067ffffffffffffffff821117156200079c576200079b620007a5565b5b80604052505050565b7f4e487b7100000000000000000000000000000000000000000000000000000000600052604160045260246000fd5b6000601f19601f8301169050919050565b620007f081620006c4565b8114620007fc57600080fd5b50565b6200080a81620006f8565b81146200081657600080fd5b5056fe6080604052600160005560016003556000600d60006101000a81548160ff021916908360028111156200005b577f4e487b7100000000000000000000000000000000000000000000000000000000600052602160045260246000fd5b02179055503480156200006d57600080fd5b506040516200171f3803806200171f833981810160405281019062000093919062000307565b600080815480929190620000a79062000554565b91905055508760018190555086600281905550856004819055506000600560006101000a81548160ff0219169083151502179055508360069080519060200190620000f4929190620001b7565b5082600790805190602001906200010d929190620001b7565b50846008908051906020019062000126929190620001b7565b5080600960006101000a81548173ffffffffffffffffffffffffffffffffffffffff021916908373ffffffffffffffffffffffffffffffffffffffff16021790555081600a60006101000a81548173ffffffffffffffffffffffffffffffffffffffff021916908373ffffffffffffffffffffffffffffffffffffffff160217905550505050505050505062000674565b828054620001c590620004e8565b90600052602060002090601f016020900481019282620001e9576000855562000235565b82601f106200020457805160ff191683800117855562000235565b8280016001018555821562000235579182015b828111156200023457825182559160200191906001019062000217565b5b50905062000244919062000248565b5090565b5b808211156200026357600081600090555060010162000249565b5090565b60006200027e62000278846200043e565b62000415565b9050828152602081018484840111156200029757600080fd5b620002a4848285620004b2565b509392505050565b600081519050620002bd8162000640565b92915050565b600082601f830112620002d557600080fd5b8151620002e784826020860162000267565b91505092915050565b60008151905062000301816200065a565b92915050565b600080600080600080600080610100898b0312156200032557600080fd5b6000620003358b828c01620002f0565b9850506020620003488b828c01620002f0565b97505060406200035b8b828c01620002f0565b965050606089015167ffffffffffffffff8111156200037957600080fd5b620003878b828c01620002c3565b955050608089015167ffffffffffffffff811115620003a557600080fd5b620003b38b828c01620002c3565b94505060a089015167ffffffffffffffff811115620003d157600080fd5b620003df8b828c01620002c3565b93505060c0620003f28b828c01620002ac565b92505060e0620004058b828c01620002ac565b9150509295985092959890939650565b60006200042162000434565b90506200042f82826200051e565b919050565b6000604051905090565b600067ffffffffffffffff8211156200045c576200045b62000600565b5b62000467826200062f565b9050602081019050919050565b6000620004818262000488565b9050919050565b600073ffffffffffffffffffffffffffffffffffffffff82169050919050565b6000819050919050565b60005b83811015620004d2578082015181840152602081019050620004b5565b83811115620004e2576000848401525b50505050565b600060028204905060018216806200050157607f821691505b60208210811415620005185762000517620005d1565b5b50919050565b62000529826200062f565b810181811067ffffffffffffffff821117156200054b576200054a62000600565b5b80604052505050565b60006200056182620004a8565b91507fffffffffffffffffffffffffffffffffffffffffffffffffffffffffffffffff821415620005975762000596620005a2565b5b600182019050919050565b7f4e487b7100000000000000000000000000000000000000000000000000000000600052601160045260246000fd5b7f4e487b7100000000000000000000000000000000000000000000000000000000600052602260045260246000fd5b7f4e487b7100000000000000000000000000000000000000000000000000000000600052604160045260246000fd5b6000601f19601f8301169050919050565b6200064b8162000474565b81146200065757600080fd5b50565b6200066581620004a8565b81146200067157600080fd5b50565b61109b80620006846000396000f3fe6080604052600436106100915760003560e01c8063c001e5c711610059578063c001e5c71461012b578063c040e6b814610156578063ccc5d7d414610181578063ced6d267146101b7578063fbbf93a0146101c157610091565b806312065fe01461009657806338e771ab146100c15780634e69d560146100cb57806369d89575146100f6578063b97a7d2414610100575b600080fd5b3480156100a257600080fd5b506100ab6101e5565b6040516100b89190610cb8565b60405180910390f35b6100c96101ed565b005b3480156100d757600080fd5b506100e0610366565b6040516100ed9190610c9d565b60405180910390f35b6100fe61037d565b005b34801561010c57600080fd5b50610115610478565b6040516101229190610cb8565b60405180910390f35b34801561013757600080fd5b50610140610482565b60405161014d9190610c82565b60405180910390f35b34801561016257600080fd5b5061016b61049f565b6040516101789190610c9d565b60405180910390f35b34801561018d57600080fd5b506101966104b2565b6040516101ae9c9b9a99989796959493929190610d57565b60405180910390f35b6101bf6106f9565b005b6101c9610987565b6040516101dc9796959493929190610cd3565b60405180910390f35b600047905090565b6002806002811115610228577f4e487b7100000000000000000000000000000000000000000000000000000000600052602160045260246000fd5b600d60009054906101000a900460ff166002811115610270577f4e487b7100000000000000000000000000000000000000000000000000000000600052602160045260246000fd5b1461027a57600080fd5b6000600190505b6003548111610362576000600c600083815260200190815260200160002060009054906101000a900473ffffffffffffffffffffffffffffffffffffffff1690506000600b60008373ffffffffffffffffffffffffffffffffffffffff1673ffffffffffffffffffffffffffffffffffffffff1681526020019081526020016000205490508173ffffffffffffffffffffffffffffffffffffffff166108fc829081150290604051600060405180830381858888f1935050505015801561034c573d6000803e3d6000fd5b505050808061035a90610f6a565b915050610281565b5050565b6000600d60009054906101000a900460ff16905090565b60018060028111156103b8577f4e487b7100000000000000000000000000000000000000000000000000000000600052602160045260246000fd5b600d60009054906101000a900460ff166002811115610400577f4e487b7100000000000000000000000000000000000000000000000000000000600052602160045260246000fd5b1461040a57600080fd5b600a60009054906101000a900473ffffffffffffffffffffffffffffffffffffffff1673ffffffffffffffffffffffffffffffffffffffff166108fc6001549081150290604051600060405180830381858888f19350505050158015610474573d6000803e3d6000fd5b5050565b6000600154905090565b6000600454421115610497576001905061049c565b600090505b90565b600d60009054906101000a900460ff1681565b60008060008060006060806060600080600080600154600254600354600454600560009054906101000a900460ff16600860066007600960009054906101000a900473ffffffffffffffffffffffffffffffffffffffff16600a60009054906101000a900473ffffffffffffffffffffffffffffffffffffffff16304786805461053b90610f38565b80601f016020809104026020016040519081016040528092919081815260200182805461056790610f38565b80156105b45780601f10610589576101008083540402835291602001916105b4565b820191906000526020600020905b81548152906001019060200180831161059757829003601f168201915b505050505096508580546105c790610f38565b80601f01602080910402602001604051908101604052809291908181526020018280546105f390610f38565b80156106405780601f1061061557610100808354040283529160200191610640565b820191906000526020600020905b81548152906001019060200180831161062357829003601f168201915b5050505050955084805461065390610f38565b80601f016020809104026020016040519081016040528092919081815260200182805461067f90610f38565b80156106cc5780601f106106a1576101008083540402835291602001916106cc565b820191906000526020600020905b8154815290600101906020018083116106af57829003601f168201915b505050505094509b509b509b509b509b509b509b509b509b509b509b509b50909192939495969798999a9b565b6000806002811115610734577f4e487b7100000000000000000000000000000000000000000000000000000000600052602160045260246000fd5b600d60009054906101000a900460ff16600281111561077c577f4e487b7100000000000000000000000000000000000000000000000000000000600052602160045260246000fd5b1461078657600080fd5b60025434101561079557600080fd5b6004544211156107a457600080fd5b6000600b60003373ffffffffffffffffffffffffffffffffffffffff1673ffffffffffffffffffffffffffffffffffffffff1681526020019081526020016000205414156108af5734600b60003373ffffffffffffffffffffffffffffffffffffffff1673ffffffffffffffffffffffffffffffffffffffff168152602001908152602001600020600082825461083b9190610e42565b9250508190555033600c60006003600081548092919061085a90610f6a565b91905055815260200190815260200160002060006101000a81548173ffffffffffffffffffffffffffffffffffffffff021916908373ffffffffffffffffffffffffffffffffffffffff160217905550610906565b34600b60003373ffffffffffffffffffffffffffffffffffffffff1673ffffffffffffffffffffffffffffffffffffffff16815260200190815260200160002060008282546108fe9190610e42565b925050819055505b6001544710610984576001600d60006101000a81548160ff0219169083600281111561095b577f4e487b7100000000000000000000000000000000000000000000000000000000600052602160045260246000fd5b02179055506001600560006101000a81548160ff02191690831515021790555061098361037d565b5b50565b6000606080606060008060008061099c610482565b905080156109fe576002600d60006101000a81548160ff021916908360028111156109f0577f4e487b7100000000000000000000000000000000000000000000000000000000600052602160045260246000fd5b02179055506109fd6101ed565b5b6001546008600660073047600d60009054906101000a900460ff166002811115610a51577f4e487b7100000000000000000000000000000000000000000000000000000000600052602160045260246000fd5b858054610a5d90610f38565b80601f0160208091040260200160405190810160405280929190818152602001828054610a8990610f38565b8015610ad65780601f10610aab57610100808354040283529160200191610ad6565b820191906000526020600020905b815481529060010190602001808311610ab957829003601f168201915b50505050509550848054610ae990610f38565b80601f0160208091040260200160405190810160405280929190818152602001828054610b1590610f38565b8015610b625780601f10610b3757610100808354040283529160200191610b62565b820191906000526020600020905b815481529060010190602001808311610b4557829003601f168201915b50505050509450838054610b7590610f38565b80601f0160208091040260200160405190810160405280929190818152602001828054610ba190610f38565b8015610bee5780601f10610bc357610100808354040283529160200191610bee565b820191906000526020600020905b815481529060010190602001808311610bd157829003601f168201915b5050505050935097509750975097509750975097505090919293949596565b610c1681610e98565b82525050565b610c2581610eaa565b82525050565b610c3481610ef3565b82525050565b6000610c4582610e26565b610c4f8185610e31565b9350610c5f818560208601610f05565b610c6881611040565b840191505092915050565b610c7c81610ee9565b82525050565b6000602082019050610c976000830184610c1c565b92915050565b6000602082019050610cb26000830184610c2b565b92915050565b6000602082019050610ccd6000830184610c73565b92915050565b600060e082019050610ce8600083018a610c73565b8181036020830152610cfa8189610c3a565b90508181036040830152610d0e8188610c3a565b90508181036060830152610d228187610c3a565b9050610d316080830186610c0d565b610d3e60a0830185610c73565b610d4b60c0830184610c73565b98975050505050505050565b600061018082019050610d6d600083018f610c73565b610d7a602083018e610c73565b610d87604083018d610c73565b610d94606083018c610c73565b610da1608083018b610c1c565b81810360a0830152610db3818a610c3a565b905081810360c0830152610dc78189610c3a565b905081810360e0830152610ddb8188610c3a565b9050610deb610100830187610c0d565b610df9610120830186610c0d565b610e07610140830185610c0d565b610e15610160830184610c73565b9d9c50505050505050505050505050565b600081519050919050565b600082825260208201905092915050565b6000610e4d82610ee9565b9150610e5883610ee9565b9250827fffffffffffffffffffffffffffffffffffffffffffffffffffffffffffffffff03821115610e8d57610e8c610fb3565b5b828201905092915050565b6000610ea382610ec9565b9050919050565b60008115159050919050565b6000819050610ec482611051565b919050565b600073ffffffffffffffffffffffffffffffffffffffff82169050919050565b6000819050919050565b6000610efe82610eb6565b9050919050565b60005b83811015610f23578082015181840152602081019050610f08565b83811115610f32576000848401525b50505050565b60006002820490506001821680610f5057607f821691505b60208210811415610f6457610f63611011565b5b50919050565b6000610f7582610ee9565b91507fffffffffffffffffffffffffffffffffffffffffffffffffffffffffffffffff821415610fa857610fa7610fb3565b5b600182019050919050565b7f4e487b7100000000000000000000000000000000000000000000000000000000600052601160045260246000fd5b7f4e487b7100000000000000000000000000000000000000000000000000000000600052602160045260246000fd5b7f4e487b7100000000000000000000000000000000000000000000000000000000600052602260045260246000fd5b6000601f19601f8301169050919050565b6003811061106257611061610fe2565b5b5056fea264697066735822122076ca5efa50ddfd770390917c900d59e8143512a16e9874e026ac47bff7d48e1d64736f6c63430008010033a2646970667358221220c1dd78ede362bf5776b8a56559d51a8344f1f90592d8eaac9a1a03aba50db1c464736f6c63430008010033",
  "immutableReferences": {},
  "source": "// SPDX-License-Identifier: GPL-3.0\r\npragma solidity >=0.7.0 <0.9.0;\r\n\r\ncontract FundraiserStore {\r\n    Fundraiser[] public fundraisers;\r\n    \r\n    function createFundraiser(uint _goalAmount, uint _minDonation, uint256 _expiryDate, string memory _hostName, string memory _title, string memory _description, address _recipientAddress) public {\r\n        address hostAddress = msg.sender;\r\n        Fundraiser _fundraiser = new Fundraiser(_goalAmount, _minDonation, _expiryDate, _hostName, _title, _description, _recipientAddress, hostAddress);\r\n        fundraisers.push(_fundraiser);\r\n    }\r\n    \r\n    function getAll() view public returns(Fundraiser[] memory) {\r\n        return fundraisers;\r\n    }\r\n    \r\n}\r\n\r\ncontract Fundraiser {\r\n    uint fundraiserId = 1;\r\n    uint goalAmount;\r\n    uint minDonation;\r\n    uint donatorCount = 1;\r\n    uint256 expiryDate;\r\n    bool isCompleted;\r\n    string title;\r\n    string description;    \r\n    string hostName;\r\n    address hostAddress;\r\n    address recipientAddress;\r\n    mapping(address => uint) donators;\r\n    mapping(uint => address) donatorsAddress;\r\n    enum Stage {Donation, Complete, Expired}\r\n    Stage public stage = Stage.Donation;\r\n    \r\n    // 10000, 100, 1653067368, 'shanHost',  'Test Fundraiser', 'This is a test fundraiser for my first test', 0xdD870fA1b7C4700F2BD7f44238821C26f7392148\r\n    constructor(uint _goalAmount, uint _minDonation, uint256 _expiryDate, string memory _hostName, string memory _title, string memory _description, address _recipientAddress, address _hostAddress) {\r\n        fundraiserId++;\r\n        goalAmount = _goalAmount;\r\n        minDonation = _minDonation;\r\n        expiryDate = _expiryDate;\r\n        isCompleted = false;\r\n        title = _title;\r\n        description = _description;\r\n        hostName = _hostName;\r\n        hostAddress = _hostAddress;\r\n        recipientAddress = _recipientAddress;\r\n    }\r\n    \r\n    modifier onlyHost{\r\n        require(msg.sender == hostAddress);\r\n        _;\r\n    }\r\n    \r\n    modifier validStage(Stage reqStage){\r\n        require(stage == reqStage);\r\n        _;\r\n    }\r\n    \r\n    modifier minDonate{\r\n        require(msg.value >= minDonation);\r\n        _;\r\n    }\r\n    \r\n    function isFundraiserExpired() view public returns(bool) {\r\n        if(block.timestamp > expiryDate){\r\n            return true;\r\n        } else {\r\n            return false;\r\n        }\r\n    }\r\n    \r\n    function getDetails() public payable returns (uint _goalAmount, string memory _hostName, string memory _title, string memory _description, address _fundraiserAddress, uint _fundraiserBalance, uint _stage) {\r\n        bool isExpired = isFundraiserExpired();\r\n        if(isExpired) {\r\n            stage = Stage.Expired;\r\n            refundAll();\r\n        }\r\n        return (goalAmount, hostName, title, description, address(this), address(this).balance, uint(stage));\r\n    }\r\n    \r\n    function getAllDetails() view public returns (uint _goalAmount, uint _minDonation, uint _donatorCount, uint256 _expiryDate, bool _isCompleted, string memory _hostName, string memory _title, string memory _description, address _hostAddress, address _recipientAddress, address _fundraiserAddress, uint _fundraiserBalance) {\r\n        return (goalAmount, minDonation, donatorCount, expiryDate, isCompleted, hostName, title, description, hostAddress, recipientAddress, address(this), address(this).balance);\r\n    }\r\n    \r\n    function getGoal() view public returns (uint) {\r\n        return goalAmount;\r\n    }\r\n    \r\n    function getBalance() view public returns (uint) {\r\n        return address(this).balance;\r\n    }\r\n    \r\n    function getStatus() view public returns (Stage) {\r\n        return stage;\r\n    }\r\n    \r\n    \r\n    function addDonation() public payable validStage(Stage.Donation) minDonate {\r\n        if(block.timestamp > expiryDate){\r\n            revert();\r\n        } else {\r\n            if(donators[msg.sender] == 0){\r\n                donators[msg.sender] += msg.value;\r\n                donatorsAddress[donatorCount++] = msg.sender;    \r\n            } else {\r\n                donators[msg.sender] += msg.value;\r\n            }\r\n            //change state if goal is completed. this.balance already adds the msg.value\r\n            if(address(this).balance >= goalAmount){\r\n                stage = Stage.Complete;\r\n                isCompleted = true;\r\n                releaseFunds();\r\n            }\r\n        }\r\n    }\r\n    \r\n    function refundAll() public payable validStage(Stage.Expired) {\r\n        for(uint i=1; i <= donatorCount; i++) {\r\n            address _to = donatorsAddress[i];\r\n            uint _amount = donators[_to];\r\n            payable(_to).transfer(_amount);\r\n        }\r\n    }\r\n    \r\n    function releaseFunds() public payable validStage(Stage.Complete) { \r\n        payable(recipientAddress).transfer(goalAmount);\r\n    }\r\n    \r\n    \r\n}",
  "sourcePath": "C:\\Users\\sphat\\Desktop\\fundraiser-dapp-eth\\contracts\\FundraiserContract.sol",
  "compiler": {
    "name": "solc",
    "version": "0.8.1+commit.df193b15.Emscripten.clang"
  },
  "schemaVersion": "3.4.3",
  "updatedAt": "2021-08-25T04:45:48.423Z",
  "networkType": "ethereum",
  "devdoc": {
    "kind": "dev",
    "methods": {},
    "version": 1
  },
  "userdoc": {
    "kind": "user",
    "methods": {},
    "version": 1
  }
}