{
  "_format": "hh-sol-artifact-1",
  "contractName": "FundraiserStore",
  "sourceName": "contracts/FundraiserContract.sol",
  "abi": [
    {
      "inputs": [
        {
          "internalType": "uint256",
          "name": "_goalAmount",
          "type": "uint256"
        },
        {
          "internalType": "uint256",
          "name": "_minDonation",
          "type": "uint256"
        },
        {
          "internalType": "uint256",
          "name": "_expiryDate",
          "type": "uint256"
        },
        {
          "internalType": "string",
          "name": "_hostName",
          "type": "string"
        },
        {
          "internalType": "string",
          "name": "_title",
          "type": "string"
        },
        {
          "internalType": "string",
          "name": "_description",
          "type": "string"
        },
        {
          "internalType": "address",
          "name": "_recipientAddress",
          "type": "address"
        },
        {
          "internalType": "uint256",
          "name": "_totalAmt",
          "type": "uint256"
        }
      ],
      "name": "createFundraiser",
      "outputs": [],
      "stateMutability": "nonpayable",
      "type": "function"
    },
    {
      "inputs": [
        {
          "internalType": "uint256",
          "name": "",
          "type": "uint256"
        }
      ],
      "name": "fundraisers",
      "outputs": [
        {
          "internalType": "contract Fundraiser",
          "name": "",
          "type": "address"
        }
      ],
      "stateMutability": "view",
      "type": "function"
    },
    {
      "inputs": [],
      "name": "getAll",
      "outputs": [
        {
          "internalType": "contract Fundraiser[]",
          "name": "",
          "type": "address[]"
        }
      ],
      "stateMutability": "view",
      "type": "function"
    },
    {
      "inputs": [],
      "name": "totalAmount",
      "outputs": [
        {
          "internalType": "uint256",
          "name": "",
          "type": "uint256"
        }
      ],
      "stateMutability": "view",
      "type": "function"
    },
    {
      "inputs": [],
      "name": "totalAmt",
      "outputs": [
        {
          "internalType": "uint256",
          "name": "_totalAmount",
          "type": "uint256"
        }
      ],
      "stateMutability": "nonpayable",
      "type": "function"
    }
  ],
  "bytecode": "0x60806040526000805534801561001457600080fd5b50612445806100246000396000f3fe60806040523480156200001157600080fd5b50600436106200005e5760003560e01c80631a39d8ef146200006357806342896a8e146200008557806353ed514314620000a5578063dc25852f14620000c7578063f38f72fb14620000e9575b600080fd5b6200006d6200011f565b6040516200007c919062000762565b60405180910390f35b620000a360048036038101906200009d91906200050a565b62000125565b005b620000af620001e6565b604051620000be919062000721565b60405180910390f35b620000d162000276565b604051620000e0919062000762565b60405180910390f35b620001076004803603810190620001019190620004b2565b620003ad565b60405162000116919062000745565b60405180910390f35b60005481565b6000339050600089898989898989888a6040516200014390620003ed565b62000157999897969594939291906200077f565b604051809103906000f08015801562000174573d6000803e3d6000fd5b5090506001819080600181540180825580915050600190039060005260206000200160009091909190916101000a81548173ffffffffffffffffffffffffffffffffffffffff021916908373ffffffffffffffffffffffffffffffffffffffff16021790555050505050505050505050565b606060018054806020026020016040519081016040528092919081815260200182805480156200026c57602002820191906000526020600020905b8160009054906101000a900473ffffffffffffffffffffffffffffffffffffffff1673ffffffffffffffffffffffffffffffffffffffff168152602001906001019080831162000221575b5050505050905090565b600080600090505b600180549050811015620003a45760018181548110620002c7577f4e487b7100000000000000000000000000000000000000000000000000000000600052603260045260246000fd5b9060005260206000200160009054906101000a900473ffffffffffffffffffffffffffffffffffffffff1673ffffffffffffffffffffffffffffffffffffffff1663775a25e36040518163ffffffff1660e01b8152600401602060405180830381600087803b1580156200033a57600080fd5b505af11580156200034f573d6000803e3d6000fd5b505050506040513d601f19601f82011682018060405250810190620003759190620004de565b600080828254620003879190620008ef565b9250508190555080806200039b90620009f7565b9150506200027e565b50600054905090565b60018181548110620003be57600080fd5b906000526020600020016000915054906101000a900473ffffffffffffffffffffffffffffffffffffffff1681565b6119278062000ae983390190565b6000620004126200040c8462000867565b62000833565b9050828152602081018484840111156200042b57600080fd5b62000438848285620009b2565b509392505050565b600081359050620004518162000ab4565b92915050565b600082601f8301126200046957600080fd5b81356200047b848260208601620003fb565b91505092915050565b600081359050620004958162000ace565b92915050565b600081519050620004ac8162000ace565b92915050565b600060208284031215620004c557600080fd5b6000620004d58482850162000484565b91505092915050565b600060208284031215620004f157600080fd5b600062000501848285016200049b565b91505092915050565b600080600080600080600080610100898b0312156200052857600080fd5b6000620005388b828c0162000484565b98505060206200054b8b828c0162000484565b97505060406200055e8b828c0162000484565b965050606089013567ffffffffffffffff8111156200057c57600080fd5b6200058a8b828c0162000457565b955050608089013567ffffffffffffffff811115620005a857600080fd5b620005b68b828c0162000457565b94505060a089013567ffffffffffffffff811115620005d457600080fd5b620005e28b828c0162000457565b93505060c0620005f58b828c0162000440565b92505060e0620006088b828c0162000484565b9150509295985092959890939650565b6000620006268383620006ad565b60208301905092915050565b6200063d816200094c565b82525050565b60006200065082620008aa565b6200065c8185620008cd565b935062000669836200089a565b8060005b83811015620006a057815162000684888262000618565b97506200069183620008c0565b9250506001810190506200066d565b5085935050505092915050565b620006b8816200098a565b82525050565b620006c9816200098a565b82525050565b6000620006dc82620008b5565b620006e88185620008de565b9350620006fa818560208601620009c1565b620007058162000aa3565b840191505092915050565b6200071b8162000980565b82525050565b600060208201905081810360008301526200073d818462000643565b905092915050565b60006020820190506200075c6000830184620006be565b92915050565b600060208201905062000779600083018462000710565b92915050565b60006101208201905062000797600083018c62000710565b620007a6602083018b62000710565b620007b5604083018a62000710565b8181036060830152620007c98189620006cf565b90508181036080830152620007df8188620006cf565b905081810360a0830152620007f58187620006cf565b90506200080660c083018662000632565b6200081560e083018562000632565b6200082561010083018462000710565b9a9950505050505050505050565b6000604051905081810181811067ffffffffffffffff821117156200085d576200085c62000a74565b5b8060405250919050565b600067ffffffffffffffff82111562000885576200088462000a74565b5b601f19601f8301169050602081019050919050565b6000819050602082019050919050565b600081519050919050565b600081519050919050565b6000602082019050919050565b600082825260208201905092915050565b600082825260208201905092915050565b6000620008fc8262000980565b9150620009098362000980565b9250827fffffffffffffffffffffffffffffffffffffffffffffffffffffffffffffffff0382111562000941576200094062000a45565b5b828201905092915050565b6000620009598262000960565b9050919050565b600073ffffffffffffffffffffffffffffffffffffffff82169050919050565b6000819050919050565b600062000997826200099e565b9050919050565b6000620009ab8262000960565b9050919050565b82818337600083830152505050565b60005b83811015620009e1578082015181840152602081019050620009c4565b83811115620009f1576000848401525b50505050565b600062000a048262000980565b91507fffffffffffffffffffffffffffffffffffffffffffffffffffffffffffffffff82141562000a3a5762000a3962000a45565b5b600182019050919050565b7f4e487b7100000000000000000000000000000000000000000000000000000000600052601160045260246000fd5b7f4e487b7100000000000000000000000000000000000000000000000000000000600052604160045260246000fd5b6000601f19601f8301169050919050565b62000abf816200094c565b811462000acb57600080fd5b50565b62000ad98162000980565b811462000ae557600080fd5b5056fe6080604052600160005560006003556000600c556000600f60006101000a81548160ff0219169083600281111562000060577f4e487b7100000000000000000000000000000000000000000000000000000000600052602160045260246000fd5b02179055503480156200007257600080fd5b506040516200192738038062001927833981810160405281019062000098919062000314565b600080815480929190620000ac9062000549565b91905055508860018190555087600281905550866004819055506000600560006101000a81548160ff0219169083151502179055508460069080519060200190620000f9929190620001c4565b50836007908051906020019062000112929190620001c4565b5085600890805190602001906200012b929190620001c4565b5081600960006101000a81548173ffffffffffffffffffffffffffffffffffffffff021916908373ffffffffffffffffffffffffffffffffffffffff16021790555082600a60006101000a81548173ffffffffffffffffffffffffffffffffffffffff021916908373ffffffffffffffffffffffffffffffffffffffff16021790555080600c8190555050505050505050505062000658565b828054620001d29062000513565b90600052602060002090601f016020900481019282620001f6576000855562000242565b82601f106200021157805160ff191683800117855562000242565b8280016001018555821562000242579182015b828111156200024157825182559160200191906001019062000224565b5b50905062000251919062000255565b5090565b5b808211156200027057600081600090555060010162000256565b5090565b60006200028b62000285846200046c565b62000438565b905082815260208101848484011115620002a457600080fd5b620002b1848285620004dd565b509392505050565b600081519050620002ca8162000624565b92915050565b600082601f830112620002e257600080fd5b8151620002f484826020860162000274565b91505092915050565b6000815190506200030e816200063e565b92915050565b60008060008060008060008060006101208a8c0312156200033457600080fd5b6000620003448c828d01620002fd565b9950506020620003578c828d01620002fd565b98505060406200036a8c828d01620002fd565b97505060608a015167ffffffffffffffff8111156200038857600080fd5b620003968c828d01620002d0565b96505060808a015167ffffffffffffffff811115620003b457600080fd5b620003c28c828d01620002d0565b95505060a08a015167ffffffffffffffff811115620003e057600080fd5b620003ee8c828d01620002d0565b94505060c0620004018c828d01620002b9565b93505060e0620004148c828d01620002b9565b925050610100620004288c828d01620002fd565b9150509295985092959850929598565b6000604051905081810181811067ffffffffffffffff82111715620004625762000461620005f5565b5b8060405250919050565b600067ffffffffffffffff8211156200048a5762000489620005f5565b5b601f19601f8301169050602081019050919050565b6000620004ac82620004b3565b9050919050565b600073ffffffffffffffffffffffffffffffffffffffff82169050919050565b6000819050919050565b60005b83811015620004fd578082015181840152602081019050620004e0565b838111156200050d576000848401525b50505050565b600060028204905060018216806200052c57607f821691505b60208210811415620005435762000542620005c6565b5b50919050565b60006200055682620004d3565b91507fffffffffffffffffffffffffffffffffffffffffffffffffffffffffffffffff8214156200058c576200058b62000597565b5b600182019050919050565b7f4e487b7100000000000000000000000000000000000000000000000000000000600052601160045260246000fd5b7f4e487b7100000000000000000000000000000000000000000000000000000000600052602260045260246000fd5b7f4e487b7100000000000000000000000000000000000000000000000000000000600052604160045260246000fd5b6200062f816200049f565b81146200063b57600080fd5b50565b6200064981620004d3565b81146200065557600080fd5b50565b6112bf80620006686000396000f3fe6080604052600436106100c65760003560e01c8063c001e5c71161007f578063ccc5d7d411610059578063ccc5d7d4146102a2578063ced6d267146102d8578063dc25852f146102e2578063fbbf93a01461030d57610116565b8063c001e5c714610221578063c040e6b81461024c578063c932415b1461027757610116565b806312065fe01461016157806338e771ab1461018c5780634e69d5601461019657806369d89575146101c1578063775a25e3146101cb578063b97a7d24146101f657610116565b36610116576100d3610331565b33600b60006101000a81548173ffffffffffffffffffffffffffffffffffffffff021916908373ffffffffffffffffffffffffffffffffffffffff160217905550005b61011e610331565b33600b60006101000a81548173ffffffffffffffffffffffffffffffffffffffff021916908373ffffffffffffffffffffffffffffffffffffffff160217905550005b34801561016d57600080fd5b506101766105d9565b6040516101839190610edc565b60405180910390f35b6101946105e1565b005b3480156101a257600080fd5b506101ab61075a565b6040516101b89190610ec1565b60405180910390f35b6101c9610771565b005b3480156101d757600080fd5b506101e061086a565b6040516101ed9190610edc565b60405180910390f35b34801561020257600080fd5b5061020b610874565b6040516102189190610edc565b60405180910390f35b34801561022d57600080fd5b5061023661087e565b6040516102439190610ea6565b60405180910390f35b34801561025857600080fd5b5061026161089b565b60405161026e9190610ec1565b60405180910390f35b34801561028357600080fd5b5061028c6108ae565b6040516102999190610e8b565b60405180910390f35b3480156102ae57600080fd5b506102b76108d8565b6040516102cf9c9b9a99989796959493929190610f7b565b60405180910390f35b6102e0610331565b005b3480156102ee57600080fd5b506102f7610b1f565b6040516103049190610edc565b60405180910390f35b610315610b25565b6040516103289796959493929190610ef7565b60405180910390f35b600080600281111561036c577f4e487b7100000000000000000000000000000000000000000000000000000000600052602160045260246000fd5b600f60009054906101000a900460ff1660028111156103b4577f4e487b7100000000000000000000000000000000000000000000000000000000600052602160045260246000fd5b146103be57600080fd5b6002543410156103cd57600080fd5b6004544211156103dc57600080fd5b6000600d60003373ffffffffffffffffffffffffffffffffffffffff1673ffffffffffffffffffffffffffffffffffffffff1681526020019081526020016000205414156105015734600d60003373ffffffffffffffffffffffffffffffffffffffff1673ffffffffffffffffffffffffffffffffffffffff16815260200190815260200160002060008282546104739190611066565b9250508190555034600c600082825461048c9190611066565b9250508190555060016003546104a29190611066565b60038190555033600e6000600354815260200190815260200160002060006101000a81548173ffffffffffffffffffffffffffffffffffffffff021916908373ffffffffffffffffffffffffffffffffffffffff160217905550610558565b34600d60003373ffffffffffffffffffffffffffffffffffffffff1673ffffffffffffffffffffffffffffffffffffffff16815260200190815260200160002060008282546105509190611066565b925050819055505b60015447106105d6576001600f60006101000a81548160ff021916908360028111156105ad577f4e487b7100000000000000000000000000000000000000000000000000000000600052602160045260246000fd5b02179055506001600560006101000a81548160ff0219169083151502179055506105d5610771565b5b50565b600047905090565b600280600281111561061c577f4e487b7100000000000000000000000000000000000000000000000000000000600052602160045260246000fd5b600f60009054906101000a900460ff166002811115610664577f4e487b7100000000000000000000000000000000000000000000000000000000600052602160045260246000fd5b1461066e57600080fd5b6000600190505b6003548111610756576000600e600083815260200190815260200160002060009054906101000a900473ffffffffffffffffffffffffffffffffffffffff1690506000600d60008373ffffffffffffffffffffffffffffffffffffffff1673ffffffffffffffffffffffffffffffffffffffff1681526020019081526020016000205490508173ffffffffffffffffffffffffffffffffffffffff166108fc829081150290604051600060405180830381858888f19350505050158015610740573d6000803e3d6000fd5b505050808061074e9061118e565b915050610675565b5050565b6000600f60009054906101000a900460ff16905090565b60018060028111156107ac577f4e487b7100000000000000000000000000000000000000000000000000000000600052602160045260246000fd5b600f60009054906101000a900460ff1660028111156107f4577f4e487b7100000000000000000000000000000000000000000000000000000000600052602160045260246000fd5b146107fe57600080fd5b600a60009054906101000a900473ffffffffffffffffffffffffffffffffffffffff1673ffffffffffffffffffffffffffffffffffffffff166108fc479081150290604051600060405180830381858888f19350505050158015610866573d6000803e3d6000fd5b5050565b6000600c54905090565b6000600154905090565b60006004544211156108935760019050610898565b600090505b90565b600f60009054906101000a900460ff1681565b6000600b60009054906101000a900473ffffffffffffffffffffffffffffffffffffffff16905090565b60008060008060006060806060600080600080600154600254600354600454600560009054906101000a900460ff16600860066007600960009054906101000a900473ffffffffffffffffffffffffffffffffffffffff16600a60009054906101000a900473ffffffffffffffffffffffffffffffffffffffff1630478680546109619061115c565b80601f016020809104026020016040519081016040528092919081815260200182805461098d9061115c565b80156109da5780601f106109af576101008083540402835291602001916109da565b820191906000526020600020905b8154815290600101906020018083116109bd57829003601f168201915b505050505096508580546109ed9061115c565b80601f0160208091040260200160405190810160405280929190818152602001828054610a199061115c565b8015610a665780601f10610a3b57610100808354040283529160200191610a66565b820191906000526020600020905b815481529060010190602001808311610a4957829003601f168201915b50505050509550848054610a799061115c565b80601f0160208091040260200160405190810160405280929190818152602001828054610aa59061115c565b8015610af25780601f10610ac757610100808354040283529160200191610af2565b820191906000526020600020905b815481529060010190602001808311610ad557829003601f168201915b505050505094509b509b509b509b509b509b509b509b509b509b509b509b50909192939495969798999a9b565b600c5481565b60006060806060600080600080610b3a61087e565b90508015610c07576000471115610bb557600a60009054906101000a900473ffffffffffffffffffffffffffffffffffffffff1673ffffffffffffffffffffffffffffffffffffffff166108fc479081150290604051600060405180830381858888f19350505050158015610bb3573d6000803e3d6000fd5b505b6002600f60006101000a81548160ff02191690836002811115610c01577f4e487b7100000000000000000000000000000000000000000000000000000000600052602160045260246000fd5b02179055505b6001546008600660073047600f60009054906101000a900460ff166002811115610c5a577f4e487b7100000000000000000000000000000000000000000000000000000000600052602160045260246000fd5b858054610c669061115c565b80601f0160208091040260200160405190810160405280929190818152602001828054610c929061115c565b8015610cdf5780601f10610cb457610100808354040283529160200191610cdf565b820191906000526020600020905b815481529060010190602001808311610cc257829003601f168201915b50505050509550848054610cf29061115c565b80601f0160208091040260200160405190810160405280929190818152602001828054610d1e9061115c565b8015610d6b5780601f10610d4057610100808354040283529160200191610d6b565b820191906000526020600020905b815481529060010190602001808311610d4e57829003601f168201915b50505050509450838054610d7e9061115c565b80601f0160208091040260200160405190810160405280929190818152602001828054610daa9061115c565b8015610df75780601f10610dcc57610100808354040283529160200191610df7565b820191906000526020600020905b815481529060010190602001808311610dda57829003601f168201915b5050505050935097509750975097509750975097505090919293949596565b610e1f816110bc565b82525050565b610e2e816110ce565b82525050565b610e3d81611117565b82525050565b6000610e4e8261104a565b610e588185611055565b9350610e68818560208601611129565b610e7181611264565b840191505092915050565b610e858161110d565b82525050565b6000602082019050610ea06000830184610e16565b92915050565b6000602082019050610ebb6000830184610e25565b92915050565b6000602082019050610ed66000830184610e34565b92915050565b6000602082019050610ef16000830184610e7c565b92915050565b600060e082019050610f0c600083018a610e7c565b8181036020830152610f1e8189610e43565b90508181036040830152610f328188610e43565b90508181036060830152610f468187610e43565b9050610f556080830186610e16565b610f6260a0830185610e7c565b610f6f60c0830184610e7c565b98975050505050505050565b600061018082019050610f91600083018f610e7c565b610f9e602083018e610e7c565b610fab604083018d610e7c565b610fb8606083018c610e7c565b610fc5608083018b610e25565b81810360a0830152610fd7818a610e43565b905081810360c0830152610feb8189610e43565b905081810360e0830152610fff8188610e43565b905061100f610100830187610e16565b61101d610120830186610e16565b61102b610140830185610e16565b611039610160830184610e7c565b9d9c50505050505050505050505050565b600081519050919050565b600082825260208201905092915050565b60006110718261110d565b915061107c8361110d565b9250827fffffffffffffffffffffffffffffffffffffffffffffffffffffffffffffffff038211156110b1576110b06111d7565b5b828201905092915050565b60006110c7826110ed565b9050919050565b60008115159050919050565b60008190506110e882611275565b919050565b600073ffffffffffffffffffffffffffffffffffffffff82169050919050565b6000819050919050565b6000611122826110da565b9050919050565b60005b8381101561114757808201518184015260208101905061112c565b83811115611156576000848401525b50505050565b6000600282049050600182168061117457607f821691505b6020821081141561118857611187611235565b5b50919050565b60006111998261110d565b91507fffffffffffffffffffffffffffffffffffffffffffffffffffffffffffffffff8214156111cc576111cb6111d7565b5b600182019050919050565b7f4e487b7100000000000000000000000000000000000000000000000000000000600052601160045260246000fd5b7f4e487b7100000000000000000000000000000000000000000000000000000000600052602160045260246000fd5b7f4e487b7100000000000000000000000000000000000000000000000000000000600052602260045260246000fd5b6000601f19601f8301169050919050565b6003811061128657611285611206565b5b5056fea26469706673582212205d8cdb41f34253086c939bd449c971e2efaea3c95e3764da265b40c5155866a364736f6c63430008000033a2646970667358221220bf4cccd8a49bf5cea4afcce2b1749d6b5de80a8037391655a0d13031ab1073fc64736f6c63430008000033",
  "linkReferences": {},
  "deployedLinkReferences": {}
}