{
  "_format": "hh-sol-artifact-1",
  "contractName": "Fundraiser",
  "sourceName": "contracts/FundraiserContract.sol",
  "abi": [
    {
      "inputs": [
        {
          "internalType": "uint256",
          "name": "_goalAmount",
          "type": "uint256"
        },
        {
          "internalType": "uint256",
          "name": "_minDonation",
          "type": "uint256"
        },
        {
          "internalType": "uint256",
          "name": "_expiryDate",
          "type": "uint256"
        },
        {
          "internalType": "string",
          "name": "_hostName",
          "type": "string"
        },
        {
          "internalType": "string",
          "name": "_title",
          "type": "string"
        },
        {
          "internalType": "string",
          "name": "_description",
          "type": "string"
        },
        {
          "internalType": "address",
          "name": "_recipientAddress",
          "type": "address"
        },
        {
          "internalType": "address",
          "name": "_hostAddress",
          "type": "address"
        }
      ],
      "stateMutability": "nonpayable",
      "type": "constructor"
    },
    {
      "stateMutability": "payable",
      "type": "fallback"
    },
    {
      "inputs": [],
      "name": "addDonation",
      "outputs": [],
      "stateMutability": "payable",
      "type": "function"
    },
    {
      "inputs": [],
      "name": "getAllDetails",
      "outputs": [
        {
          "internalType": "uint256",
          "name": "_goalAmount",
          "type": "uint256"
        },
        {
          "internalType": "uint256",
          "name": "_minDonation",
          "type": "uint256"
        },
        {
          "internalType": "uint256",
          "name": "_donatorCount",
          "type": "uint256"
        },
        {
          "internalType": "uint256",
          "name": "_expiryDate",
          "type": "uint256"
        },
        {
          "internalType": "bool",
          "name": "_isCompleted",
          "type": "bool"
        },
        {
          "internalType": "string",
          "name": "_hostName",
          "type": "string"
        },
        {
          "internalType": "string",
          "name": "_title",
          "type": "string"
        },
        {
          "internalType": "string",
          "name": "_description",
          "type": "string"
        },
        {
          "internalType": "address",
          "name": "_hostAddress",
          "type": "address"
        },
        {
          "internalType": "address",
          "name": "_recipientAddress",
          "type": "address"
        },
        {
          "internalType": "address",
          "name": "_fundraiserAddress",
          "type": "address"
        },
        {
          "internalType": "uint256",
          "name": "_fundraiserBalance",
          "type": "uint256"
        }
      ],
      "stateMutability": "view",
      "type": "function"
    },
    {
      "inputs": [],
      "name": "getBalance",
      "outputs": [
        {
          "internalType": "uint256",
          "name": "",
          "type": "uint256"
        }
      ],
      "stateMutability": "view",
      "type": "function"
    },
    {
      "inputs": [],
      "name": "getDetails",
      "outputs": [
        {
          "internalType": "uint256",
          "name": "_goalAmount",
          "type": "uint256"
        },
        {
          "internalType": "string",
          "name": "_hostName",
          "type": "string"
        },
        {
          "internalType": "string",
          "name": "_title",
          "type": "string"
        },
        {
          "internalType": "string",
          "name": "_description",
          "type": "string"
        },
        {
          "internalType": "address",
          "name": "_fundraiserAddress",
          "type": "address"
        },
        {
          "internalType": "uint256",
          "name": "_fundraiserBalance",
          "type": "uint256"
        },
        {
          "internalType": "uint256",
          "name": "_stage",
          "type": "uint256"
        }
      ],
      "stateMutability": "payable",
      "type": "function"
    },
    {
      "inputs": [],
      "name": "getExternal",
      "outputs": [
        {
          "internalType": "address",
          "name": "_externalDonor",
          "type": "address"
        }
      ],
      "stateMutability": "view",
      "type": "function"
    },
    {
      "inputs": [],
      "name": "getGoal",
      "outputs": [
        {
          "internalType": "uint256",
          "name": "",
          "type": "uint256"
        }
      ],
      "stateMutability": "view",
      "type": "function"
    },
    {
      "inputs": [],
      "name": "getStatus",
      "outputs": [
        {
          "internalType": "enum Fundraiser.Stage",
          "name": "",
          "type": "uint8"
        }
      ],
      "stateMutability": "view",
      "type": "function"
    },
    {
      "inputs": [],
      "name": "isFundraiserExpired",
      "outputs": [
        {
          "internalType": "bool",
          "name": "",
          "type": "bool"
        }
      ],
      "stateMutability": "view",
      "type": "function"
    },
    {
      "inputs": [],
      "name": "refundAll",
      "outputs": [],
      "stateMutability": "payable",
      "type": "function"
    },
    {
      "inputs": [],
      "name": "releaseFunds",
      "outputs": [],
      "stateMutability": "payable",
      "type": "function"
    },
    {
      "inputs": [],
      "name": "stage",
      "outputs": [
        {
          "internalType": "enum Fundraiser.Stage",
          "name": "",
          "type": "uint8"
        }
      ],
      "stateMutability": "view",
      "type": "function"
    },
    {
      "stateMutability": "payable",
      "type": "receive"
    }
  ],
  "bytecode": "0x6080604052600160005560006003556000600e60006101000a81548160ff021916908360028111156200005b577f4e487b7100000000000000000000000000000000000000000000000000000000600052602160045260246000fd5b02179055503480156200006d57600080fd5b50604051620017f4380380620017f4833981810160405281019062000093919062000307565b600080815480929190620000a79062000526565b91905055508760018190555086600281905550856004819055506000600560006101000a81548160ff0219169083151502179055508360069080519060200190620000f4929190620001b7565b5082600790805190602001906200010d929190620001b7565b50846008908051906020019062000126929190620001b7565b5080600960006101000a81548173ffffffffffffffffffffffffffffffffffffffff021916908373ffffffffffffffffffffffffffffffffffffffff16021790555081600a60006101000a81548173ffffffffffffffffffffffffffffffffffffffff021916908373ffffffffffffffffffffffffffffffffffffffff160217905550505050505050505062000635565b828054620001c590620004f0565b90600052602060002090601f016020900481019282620001e9576000855562000235565b82601f106200020457805160ff191683800117855562000235565b8280016001018555821562000235579182015b828111156200023457825182559160200191906001019062000217565b5b50905062000244919062000248565b5090565b5b808211156200026357600081600090555060010162000249565b5090565b60006200027e620002788462000449565b62000415565b9050828152602081018484840111156200029757600080fd5b620002a4848285620004ba565b509392505050565b600081519050620002bd8162000601565b92915050565b600082601f830112620002d557600080fd5b8151620002e784826020860162000267565b91505092915050565b60008151905062000301816200061b565b92915050565b600080600080600080600080610100898b0312156200032557600080fd5b6000620003358b828c01620002f0565b9850506020620003488b828c01620002f0565b97505060406200035b8b828c01620002f0565b965050606089015167ffffffffffffffff8111156200037957600080fd5b620003878b828c01620002c3565b955050608089015167ffffffffffffffff811115620003a557600080fd5b620003b38b828c01620002c3565b94505060a089015167ffffffffffffffff811115620003d157600080fd5b620003df8b828c01620002c3565b93505060c0620003f28b828c01620002ac565b92505060e0620004058b828c01620002ac565b9150509295985092959890939650565b6000604051905081810181811067ffffffffffffffff821117156200043f576200043e620005d2565b5b8060405250919050565b600067ffffffffffffffff821115620004675762000466620005d2565b5b601f19601f8301169050602081019050919050565b6000620004898262000490565b9050919050565b600073ffffffffffffffffffffffffffffffffffffffff82169050919050565b6000819050919050565b60005b83811015620004da578082015181840152602081019050620004bd565b83811115620004ea576000848401525b50505050565b600060028204905060018216806200050957607f821691505b6020821081141562000520576200051f620005a3565b5b50919050565b60006200053382620004b0565b91507fffffffffffffffffffffffffffffffffffffffffffffffffffffffffffffffff82141562000569576200056862000574565b5b600182019050919050565b7f4e487b7100000000000000000000000000000000000000000000000000000000600052601160045260246000fd5b7f4e487b7100000000000000000000000000000000000000000000000000000000600052602260045260246000fd5b7f4e487b7100000000000000000000000000000000000000000000000000000000600052604160045260246000fd5b6200060c816200047c565b81146200061857600080fd5b50565b6200062681620004b0565b81146200063257600080fd5b50565b6111af80620006456000396000f3fe6080604052600436106100a05760003560e01c8063c001e5c711610064578063c001e5c7146101d0578063c040e6b8146101fb578063c932415b14610226578063ccc5d7d414610251578063ced6d26714610287578063fbbf93a014610291576100f0565b806312065fe01461013b57806338e771ab146101665780634e69d5601461017057806369d895751461019b578063b97a7d24146101a5576100f0565b366100f0576100ad6102b5565b33600b60006101000a81548173ffffffffffffffffffffffffffffffffffffffff021916908373ffffffffffffffffffffffffffffffffffffffff160217905550005b6100f86102b5565b33600b60006101000a81548173ffffffffffffffffffffffffffffffffffffffff021916908373ffffffffffffffffffffffffffffffffffffffff160217905550005b34801561014757600080fd5b50610150610544565b60405161015d9190610dcc565b60405180910390f35b61016e61054c565b005b34801561017c57600080fd5b506101856106c5565b6040516101929190610db1565b60405180910390f35b6101a36106dc565b005b3480156101b157600080fd5b506101ba6107d5565b6040516101c79190610dcc565b60405180910390f35b3480156101dc57600080fd5b506101e56107df565b6040516101f29190610d96565b60405180910390f35b34801561020757600080fd5b506102106107fc565b60405161021d9190610db1565b60405180910390f35b34801561023257600080fd5b5061023b61080f565b6040516102489190610d7b565b60405180910390f35b34801561025d57600080fd5b50610266610839565b60405161027e9c9b9a99989796959493929190610e6b565b60405180910390f35b61028f6102b5565b005b610299610a80565b6040516102ac9796959493929190610de7565b60405180910390f35b60008060028111156102f0577f4e487b7100000000000000000000000000000000000000000000000000000000600052602160045260246000fd5b600e60009054906101000a900460ff166002811115610338577f4e487b7100000000000000000000000000000000000000000000000000000000600052602160045260246000fd5b1461034257600080fd5b60025434101561035157600080fd5b60045442111561036057600080fd5b6000600c60003373ffffffffffffffffffffffffffffffffffffffff1673ffffffffffffffffffffffffffffffffffffffff16815260200190815260200160002054141561046c5734600c60003373ffffffffffffffffffffffffffffffffffffffff1673ffffffffffffffffffffffffffffffffffffffff16815260200190815260200160002060008282546103f79190610f56565b92505081905550600160035461040d9190610f56565b60038190555033600d6000600354815260200190815260200160002060006101000a81548173ffffffffffffffffffffffffffffffffffffffff021916908373ffffffffffffffffffffffffffffffffffffffff1602179055506104c3565b34600c60003373ffffffffffffffffffffffffffffffffffffffff1673ffffffffffffffffffffffffffffffffffffffff16815260200190815260200160002060008282546104bb9190610f56565b925050819055505b6001544710610541576001600e60006101000a81548160ff02191690836002811115610518577f4e487b7100000000000000000000000000000000000000000000000000000000600052602160045260246000fd5b02179055506001600560006101000a81548160ff0219169083151502179055506105406106dc565b5b50565b600047905090565b6002806002811115610587577f4e487b7100000000000000000000000000000000000000000000000000000000600052602160045260246000fd5b600e60009054906101000a900460ff1660028111156105cf577f4e487b7100000000000000000000000000000000000000000000000000000000600052602160045260246000fd5b146105d957600080fd5b6000600190505b60035481116106c1576000600d600083815260200190815260200160002060009054906101000a900473ffffffffffffffffffffffffffffffffffffffff1690506000600c60008373ffffffffffffffffffffffffffffffffffffffff1673ffffffffffffffffffffffffffffffffffffffff1681526020019081526020016000205490508173ffffffffffffffffffffffffffffffffffffffff166108fc829081150290604051600060405180830381858888f193505050501580156106ab573d6000803e3d6000fd5b50505080806106b99061107e565b9150506105e0565b5050565b6000600e60009054906101000a900460ff16905090565b6001806002811115610717577f4e487b7100000000000000000000000000000000000000000000000000000000600052602160045260246000fd5b600e60009054906101000a900460ff16600281111561075f577f4e487b7100000000000000000000000000000000000000000000000000000000600052602160045260246000fd5b1461076957600080fd5b600a60009054906101000a900473ffffffffffffffffffffffffffffffffffffffff1673ffffffffffffffffffffffffffffffffffffffff166108fc479081150290604051600060405180830381858888f193505050501580156107d1573d6000803e3d6000fd5b5050565b6000600154905090565b60006004544211156107f457600190506107f9565b600090505b90565b600e60009054906101000a900460ff1681565b6000600b60009054906101000a900473ffffffffffffffffffffffffffffffffffffffff16905090565b60008060008060006060806060600080600080600154600254600354600454600560009054906101000a900460ff16600860066007600960009054906101000a900473ffffffffffffffffffffffffffffffffffffffff16600a60009054906101000a900473ffffffffffffffffffffffffffffffffffffffff1630478680546108c29061104c565b80601f01602080910402602001604051908101604052809291908181526020018280546108ee9061104c565b801561093b5780601f106109105761010080835404028352916020019161093b565b820191906000526020600020905b81548152906001019060200180831161091e57829003601f168201915b5050505050965085805461094e9061104c565b80601f016020809104026020016040519081016040528092919081815260200182805461097a9061104c565b80156109c75780601f1061099c576101008083540402835291602001916109c7565b820191906000526020600020905b8154815290600101906020018083116109aa57829003601f168201915b505050505095508480546109da9061104c565b80601f0160208091040260200160405190810160405280929190818152602001828054610a069061104c565b8015610a535780601f10610a2857610100808354040283529160200191610a53565b820191906000526020600020905b815481529060010190602001808311610a3657829003601f168201915b505050505094509b509b509b509b509b509b509b509b509b509b509b509b50909192939495969798999a9b565b60006060806060600080600080610a956107df565b90508015610af7576002600e60006101000a81548160ff02191690836002811115610ae9577f4e487b7100000000000000000000000000000000000000000000000000000000600052602160045260246000fd5b0217905550610af661054c565b5b6001546008600660073047600e60009054906101000a900460ff166002811115610b4a577f4e487b7100000000000000000000000000000000000000000000000000000000600052602160045260246000fd5b858054610b569061104c565b80601f0160208091040260200160405190810160405280929190818152602001828054610b829061104c565b8015610bcf5780601f10610ba457610100808354040283529160200191610bcf565b820191906000526020600020905b815481529060010190602001808311610bb257829003601f168201915b50505050509550848054610be29061104c565b80601f0160208091040260200160405190810160405280929190818152602001828054610c0e9061104c565b8015610c5b5780601f10610c3057610100808354040283529160200191610c5b565b820191906000526020600020905b815481529060010190602001808311610c3e57829003601f168201915b50505050509450838054610c6e9061104c565b80601f0160208091040260200160405190810160405280929190818152602001828054610c9a9061104c565b8015610ce75780601f10610cbc57610100808354040283529160200191610ce7565b820191906000526020600020905b815481529060010190602001808311610cca57829003601f168201915b5050505050935097509750975097509750975097505090919293949596565b610d0f81610fac565b82525050565b610d1e81610fbe565b82525050565b610d2d81611007565b82525050565b6000610d3e82610f3a565b610d488185610f45565b9350610d58818560208601611019565b610d6181611154565b840191505092915050565b610d7581610ffd565b82525050565b6000602082019050610d906000830184610d06565b92915050565b6000602082019050610dab6000830184610d15565b92915050565b6000602082019050610dc66000830184610d24565b92915050565b6000602082019050610de16000830184610d6c565b92915050565b600060e082019050610dfc600083018a610d6c565b8181036020830152610e0e8189610d33565b90508181036040830152610e228188610d33565b90508181036060830152610e368187610d33565b9050610e456080830186610d06565b610e5260a0830185610d6c565b610e5f60c0830184610d6c565b98975050505050505050565b600061018082019050610e81600083018f610d6c565b610e8e602083018e610d6c565b610e9b604083018d610d6c565b610ea8606083018c610d6c565b610eb5608083018b610d15565b81810360a0830152610ec7818a610d33565b905081810360c0830152610edb8189610d33565b905081810360e0830152610eef8188610d33565b9050610eff610100830187610d06565b610f0d610120830186610d06565b610f1b610140830185610d06565b610f29610160830184610d6c565b9d9c50505050505050505050505050565b600081519050919050565b600082825260208201905092915050565b6000610f6182610ffd565b9150610f6c83610ffd565b9250827fffffffffffffffffffffffffffffffffffffffffffffffffffffffffffffffff03821115610fa157610fa06110c7565b5b828201905092915050565b6000610fb782610fdd565b9050919050565b60008115159050919050565b6000819050610fd882611165565b919050565b600073ffffffffffffffffffffffffffffffffffffffff82169050919050565b6000819050919050565b600061101282610fca565b9050919050565b60005b8381101561103757808201518184015260208101905061101c565b83811115611046576000848401525b50505050565b6000600282049050600182168061106457607f821691505b6020821081141561107857611077611125565b5b50919050565b600061108982610ffd565b91507fffffffffffffffffffffffffffffffffffffffffffffffffffffffffffffffff8214156110bc576110bb6110c7565b5b600182019050919050565b7f4e487b7100000000000000000000000000000000000000000000000000000000600052601160045260246000fd5b7f4e487b7100000000000000000000000000000000000000000000000000000000600052602160045260246000fd5b7f4e487b7100000000000000000000000000000000000000000000000000000000600052602260045260246000fd5b6000601f19601f8301169050919050565b60038110611176576111756110f6565b5b5056fea2646970667358221220ddae16689826fba7e7b980e0aafc1d5f7e86233ae7a94cbe61d05bf53987a36e64736f6c63430008000033",
  "linkReferences": {},
  "deployedLinkReferences": {}
}